S01200004D696C6C697354656D702E7372656312
S11300000C9434000C9446000C9446000C94460066
S11300100C9446000C9446000C9446000C94460044
S11300200C9446000C9446000C9446000C94460034
S11300300C9446000C9446000C945E000C9446000C
S11300400C9446000C9446000C9446000C94460014
S11300500C9446000C9446000C9446000C94460004
S11300600C9446000C94460011241FBECFEFD8E038
S1130070DEBFCDBF21E0A0E0B1E001C01D92A430FD
S1130080B207E1F70E9483000C94AB000C940000CB
S113009010920001109201011092020110920301CA
S11300A084B5826084BD85B5836085BD89EF87BDD5
S11300B0EEE6F0E080818260808308951F920F92C3
S11300C00FB60F9211248F939F93AF93BF93809198
S11300D0000190910101A0910201B09103010196E8
S11300E0A11DB11D8093000190930101A093020111
S11300F0B0930301BF91AF919F918F910F900FBE69
S11301000F901F90189584B1806284B984B18F7761
S113011084B90E944800789400E010E09801F894B3
S11301208091000190910101A0910201B09103011D
S11301307894AC01BD01401B510B620B730B443628
S113014051056105710558F335B120E2232725B91E
S10D01508C019D01E4CFF894FFCF69
S9030000FC
