S00F000070776D546573742E7372656321
S11300000C9434000C943E000C943E000C943E007E
S11300100C943E000C943E000C943E000C943E0064
S11300200C943E000C943E000C943E000C943E0054
S11300300C943E000C943E000C943E000C943E0044
S11300400C943E000C943E000C943E000C943E0034
S11300500C943E000C943E000C943E000C943E0024
S11300600C943E000C943E0011241FBECFEFD8E048
S1130070DEBFCDBF0E9440000C946C000C940000C5
S11300808FE384B9E0E8F0E0808182608083A1E8B6
S1130090B0E08C918B618C9387E893E19093870017
S11300A0809386008081806B8083109289001092F7
S11300B0880010928B0010928A008FE99FE00197CC
S11300C0F1F700C00000109289001092880010928D
S10F00D08B0010928A00F1CFF894FFCF4F
S9030000FC
