S00E00004465627567792E73726563B6
S11300000C9434000C94FB030C9451000C94510098
S11300100C9451000C9467000C9451000C94C90288
S11300200C9451000C9451000C9451000C94510008
S11300300C9451000C9451000C942A040C9451001B
S11300400C9451000C9451000C9451000C945100E8
S11300500C9451000C9451000C9451000C945100D8
S11300600C9451000C94510011241FBECFEFD8E022
S1130070DEBFCDBF11E0A0E0B1E0E2E1FBE002C0F1
S113008005900D92A034B107D9F721E0A0E4B1E0C6
S113009001C01D92A23AB207E1F70E94A7020C9494
S11300A087050C9400008AB18F7B8AB98AB1877F57
S11300B08AB9E8E6F0E0808184608083EDE6F0E0D0
S11300C08081886480838BB188648BB908951F9282
S11300D00F920FB60F921124CF92DF92EF92FF92FC
S11300E02F933F934F935F936F937F938F939F933C
S11300F0AF93BF93EF93FF934B9916C0C090400109
S1130100D090410184E6C80ED11C0D2C000CEE08E1
S1130110FF080E94EE02C616D706E806F90620F488
S113012081E08093450119C04E9917C0C0904201E7
S1130130D090430184E6C80ED11C0D2C000CEE08AF
S1130140FF080E94EE02C616D706E806F90628F450
S113015081E08093440180E183B9FF91EF91BF91E5
S1130160AF919F918F917F916F915F914F913F914B
S11301702F91FF90EF90DF90CF900F900FBE0F90D4
S11301801F90189580914501089580914401089528
S1130190813079F018F08230B9F021C00E94AC01AE
S11301A061E081E00E94970185E191E00E94D40121
S11301B008950E94AC0161E081E00E9497018BE107
S11301C091E00E94D40108950E94AC0161E081E0B5
S11301D00E94970185E291E00E94D40108950E9453
S11301E0AC0161E081E00E9497018EE291E00E94FF
S11301F0D4010895813079F018F08230B9F021C02B
S11302000E94AC0161E081E00E94970185E191E0E8
S11302100E94D40108950E94AC0161E081E00E9433
S113022097018BE191E00E94D40108950E94AC01F2
S113023061E081E00E94970185E291E00E94D4018F
S113024008950E94AC0161E081E00E9497018EE272
S113025091E00E94D40108950F931F93CF93DF93ED
S11302608B01D42F880F0E941F05882351F0C1E011
S11302700CC0F801EC0FF11D80810E944D05CF5F89
S113028001C0C0E0CD17A8F3C0E00E9445058C2F43
S1130290DF91CF911F910F9108950F931F93CF93E7
S11302A0DF9300D000D01F92CDB7DEB7082F68309F
S11302B071F4882311F088E001C080E0809300018C
S11302C041E060E071E087E20E942C0126C0809149
S11302D00001162F182B1983802F807F812B8460B7
S11302E08A838B7F8B8320E1029FC0011124812BA1
S11302F084608C838B7F8D8345E0BE016F5F7F4F6D
S113030087E20E942C0110FD08C0033030F4E3EFB3
S1130310F1E03197F1F700C000000F900F900F90BB
S11303200F900F90DF91CF911F910F910895CF936C
S1130330DF93D82FC62FE62FF0E0EF5FFE4F8081CA
S11303408D2B60E080680E944D01D0939C01C09386
S11303509D01DF91CF91089560E081E00E944D01FD
S113036010929D0110929C010895CF93C82F9091F3
S11303709C0180919B01981710F4CA3041F460915C
S11303809D016F5F60939D0180E00E949701CA30D8
S113039049F080919C018F5F80939C0161E08C2FD8
S11303A00E944D01CF910895CF93DF93EC0103C0D8
S11303B021960E94B50188818111FACFDF91CF91F6
S11303C008950E94AE020E9453000E949D030E9461
S11303D080030E94BD03EFE9F1E01182108283E5FE
S11303E0828384B1806184B90895CF92DF92EF92C1
S11303F0FF9280914C0190914D01019709F58091F4
S11304009E018130A9F058F08230D1F4EFE9F1E097
S113041088EB9BE09183808386E4828311C00E94F1
S1130420C40360939F017093A0018093A10108C04D
S11304300E94A00360939F017093A0018093A10187
S11304400E94C200882311F180914C0190914D01CA
S1130450892BE1F48091460190914701892B31F475
S113046081E090E0909347018093460180919E0142
S1130470823020F48F5F80939E0108C0823019F48B
S113048010929E0103C083E080939E01C0904801B6
S1130490D0904901E0904A01F0904B0188EEC80EDB
S11304A083E0D81EE11CF11C0E94EE02C616D7069A
S11304B0E806F90620F58091460190914701892BC1
S11304C0F1F00E94EE026093480170934901809319
S11304D04A0190934B0180914C0190914D018130E0
S11304E0910531F480919E0190E00E94C80007C0FC
S11304F0892B29F480919E0190E00E94FA000E94C9
S1130500C5008823C1F080914C0190914D01813048
S1130510910549F410924D0110924C011092A001E2
S113052010929F0108C0892B31F481E090E09093F0
S11305304D0180934C01EFE9F1E06281808191816A
S11305400E94F902FF90EF90DF90CF9008950E94EF
S1130550E1010E94F5010E94C200FBCF10924E01FE
S113056010924F011092500110925101E0EBF0E013
S1130570808182608083E1EBF0E08081836080830E
S113058089EF8093B300E0E7F0E0808182608083AC
S113059008951F920F920FB60F9211248F939F9379
S11305A0AF93BF9380914E0190914F01A091500160
S11305B0B09151010196A11DB11D80934E019093FC
S11305C04F01A0935001B0935101BF91AF919F91FE
S11305D08F910F900FBE0F901F901895F894609113
S11305E04E0170914F018091500190915101789486
S11305F008959C016C3409F464C028F46234D9F081
S1130600663451F06CC06C3609F447C0623711F19E
S1130610623509F064C032C085B1816085B98BB19F
S113062080688BB9309389002093880030938B00C5
S113063020938A00089585B18E7F85B98BB18F7719
S11306408BB9309389002093880030938B002093DA
S11306508A00089585B1816085B98BB180688BB9B2
S11306603093890020938800C90163E070E00E9400
S11306705F0570938B0060938A00089585B1816053
S113068085B98BB18F778BB930938900209388001B
S113069030938B0020938A00089585B1816085B9D9
S11306A08BB180688BB9C90163E070E00E945F057B
S11306B0709389006093880030938B0020938A00A4
S11306C008958EEF85B98BB180688BB9309389001A
S11306D02093880030938B0020938A00089585B17D
S11306E08D7F85B985B18B7F85B980E197E2909341
S11306F089008093880090938B0080938A000895EA
S113070084B1876084B98AB180688AB9E0E8F0E08E
S1130710808182608083A1E8B0E08C918B618C93AE
S113072087E893E190938700809386008081806FAF
S113073080838AB180638AB908950E94C6040895AB
S11307401F93CF93DF9378940E940405882371F05C
S11307500E94F304863419F0833529F007C0C6E4F7
S113076014ECD9E003C0C3E510E0D0E0612F7D2F85
S11307708C2FDF91CF911F91089587B1807F87B926
S113078088B18F6088B9089588EB9BE09093A001AD
S113079080939F0186B18F7021F486E48093A10138
S11307A023C0309902C0319B08C0329906C03399E6
S11307B004C082E58093A10117C030990AC0319921
S11307C008C0329902C0339B04C08CE48093A10119
S11307D00BC0309B09C0319B07C0329B05C0339BC3
S11307E003C086E48093A10160919F017091A001F0
S11307F08091A10108951F920F920FB60F921124B8
S11308008F93EF93FF9383E0809356018DB38E7F94
S11308108DBBEEE6F0E080818D7F808385B58C7F93
S113082085BD81E086BD87E287BD85B5836085BDD2
S1130830109252011092530185B3826085BB80816E
S113084082608083FF91EF918F910F900FBE0F9084
S11308501F9018951F920F920FB60F9211248F9329
S11308609F93EF93FF9380915601823039F1833047
S113087009F44DC0813009F07EC080915401883064
S1130880B0F48091550180FF04C08BB182608BB9B4
S113089003C08BB18D7F8BB9809155018695809370
S11308A05501809154018F5F8093540166C08BB1D0
S11308B082608BB982E0809356015FC090915801A9
S11308C0809157019817A9F0E0915701EF5FEF71FC
S11308D0E093570181E0809356018BB18D7F8BB9F2
S11308E0F0E0E75AFE4F8081809355011092540145
S11308F044C0EEE6F0E080818D7F80831092560143
S11309008CB381608CBB8DB381608DBB36C089E1B3
S113091087BD80915201883090F4809152018F5F9D
S113092080935201809153018695809353014A9B91
S113093024C0809153018068809353011EC0EEE669
S1130940F0E080818D7F80838CB381608CBB8DB31C
S113095081608DBBE0917A01EF5FEF71E0937A01E2
S113096080917901F0E080915301E558FE4F808336
S11309701092560102C010925601FF91EF919F917F
S11309808F910F900FBE0F901F90189510927901C0
S113099010927A0110925701109258018AB18B7FFC
S11309A08AB98BB184608BB98AB182608AB98BB100
S11309B082608BB9EEE6F0E080818D7F808384B520
S11309C0826084BD85B5836085BDE9E6F0E0808101
S11309D0826080838CB381608CBB8DB381608DBB5E
S11309E010925601089590917A0180917901981797
S11309F0D1F3E0917901EF5FEF71E0937901F0E0D9
S1130A00E558FE4F8081089590917A018091790193
S1130A10981799F090917A0180917901891730F4AF
S1130A2080917A0190917901891B089580917A01CE
S1130A3090917901891B805E089580E0089594EA7D
S1130A409093BC009091BC009923E4F79091B90075
S1130A50987F983011F0903191F48093BB0084E832
S1130A608093BC008091BC008823E4F78091B90096
S1130A70887F883131F0803431F480E0089581E05A
S1130A80089580E0089581E0089584E98093BC008E
S1130A908091BC0084FDFCCF08958093BB0084E862
S1130AA08093BC008091BC008823E4F78091B90056
S1130AB0887F883211F081E0089580E0089597FBE3
S1130AC0072E16F4009407D077FD09D00E94730511
S1130AD007FC05D03EF4909581959F4F089570953D
S1130AE061957F4F0895AA1BBB1B51E107C0AA1F44
S1130AF0BB1FA617B70710F0A61BB70B881F991FBB
S1130B005A95A9F780959095BC01CD010895F89464
S1050B10FFCF11
S1130B120880C000005465616D20416E74696D6F78
S1130B227469766500536C61766500426C75657410
S1130B326F6F7468004175746F6E6F6F6D00686FCC
S1130B4265206B6F6D206A696A20686965720000AE
S9030000FC
