:100000000C943C000C9459000C9459000C94590029
:100010000C9459000C9459000C9459000C945900FC
:100020000C9459000C9459000C9459000C945900EC
:100030000C9459000C9459000C9415020C9459001E
:100040000C9459000C9459000C9459000C945900CC
:100050000C9459000C9459000C9459000C945900BC
:100060000C9459000C9459005465616D20416E74D4
:10007000696D6F746976650011241FBECFEFD8E0FB
:10008000DEBFCDBF11E0A0E0B1E0EEEEFAE002C0CD
:1000900005900D92A231B107D9F721E0A2E1B1E0BC
:1000A00001C01D92A931B207E1F70E94D4010C945E
:1000B00075050C9400000E94FA0060E080E00E9448
:1000C000E50088E690E00E942F0161E081E00E9457
:1000D000E50085E091E00E942201089582E00E94FF
:1000E0003E0180E00E94B50181E00E94B5010E94BE
:1000F0005B0008950F931F93CF93DF938B01D42F51
:10010000880F0E944B02882351F0C1E00CC0F80117
:10011000EC0FF11D80810E947902CF5F01C0C0E029
:10012000CD17A8F3C0E00E9471028C2FDF91CF9110
:100130001F910F9108950F931F93CF93DF9300D0DA
:1001400000D01F92CDB7DEB7082F683071F4882336
:1001500011F088E001C080E08093000141E060E0A0
:1001600071E087E20E947A0026C080910001162F7C
:10017000182B1983802F807F812B84608A838B7F4B
:100180008B8320E1029FC0011124812B84608C832A
:100190008B7F8D8345E0BE016F5F7F4F87E20E94BA
:1001A0007A0010FD08C0033030F4E3EFF1E031973E
:1001B000F1F700C000000F900F900F900F900F907C
:1001C000DF91CF911F910F910895CF93DF93D82F97
:1001D000C62FE62FF0E0EF5FFE4F80818D2B60E0B1
:1001E00080680E949B00D0931701C0931801DF9193
:1001F000CF91089560E081E00E949B001092180169
:10020000109217010895CF93C82F909117018091F4
:100210001601981710F4CA3041F4609118016F5F0D
:100220006093180180E00E94E500CA3049F0809197
:1002300017018F5F8093170161E08C2F0E949B0054
:10024000CF910895CF93DF93EC0103C021960E94D4
:10025000030188818111FACFDF91CF910895CF9367
:10026000DF93FC0103C00E940301FE01EF01219610
:1002700084918111F8CFDF91CF9108950F931F934F
:10028000CF93DF9300D000D000D0CDB7DEB7082FDA
:1002900080E3898394E39A838B8380E28C8394E266
:1002A0009D838E8380E180931601E1E0F1E08081FF
:1002B000805F82838181805F838384B1806284B91F
:1002C00085B1806285B90E9445028BE49DE101976A
:1002D000F1F700C0000043E0BE016F5F7F4F87E28F
:1002E0000E947A00182F81EE94E00197F1F700C088
:1002F000000043E0BE016F5F7F4F87E20E947A00FB
:10030000182B43E0BE016F5F7F4F87E20E947A00A7
:10031000182B43E0BE016C5F7F4F87E20E947A009A
:10032000182B60E088E20E949B00812B19F085B1B8
:100330008F7D85B960E08CE00E949B0060E086E0E4
:100340000E949B0060E081E00E949B0060E0802FA3
:100350000E949B0026960FB6F894DEBF0FBECDBF5D
:10036000DF91CF911F910F91089568E00E949B004B
:10037000089584B18B7F84B98AB1877F8AB985B1AA
:10038000846085B98BB188608BB908954B9906C09C
:1003900085B1806285B981E090E0089585B18F7D57
:1003A00085B980E090E00895CF93DF93CDB7DEB7B5
:1003B0002B970FB6F894DEBF0FBECDBF0E94B901D8
:1003C0000E94FF010E946E0084B1806284B90E9485
:1003D000C6010E943A029F938F937F936F938DE0A3
:1003E00091E09F938F93CE0101969F938F930E94EC
:1003F0008B020FB6F894DEBF0FBECDBFE8CF1092D0
:10040000120110921301109214011092150184B57B
:10041000826084BD85B5836085BD89EF87BDEEE6CA
:10042000F0E080818260808308951F920F920FB662
:100430000F9211248F939F93AF93BF9380911201DA
:1004400090911301A0911401B09115010196A11D85
:10045000B11D8093120190931301A0931401B093E6
:100460001501BF91AF919F918F910F900FBE0F908B
:100470001F901895F894609112017091130180916A
:10048000140190911501789408951092B9008CE0B0
:100490008093B800089594EA9093BC009091BC00BA
:1004A0009923E4F79091B900987F983011F090313A
:1004B00091F48093BB0084E88093BC008091BC00E1
:1004C0008823E4F78091B900887F883131F0803447
:1004D00031F480E0089581E0089580E0089581E09E
:1004E000089584E98093BC008091BC0084FDFCCF1A
:1004F00008958093BB0084E88093BC008091BC0089
:100500008823E4F78091B900887F883211F081E078
:10051000089580E00895AEE0B0E0E1E9F2E00C94E7
:100520004C050D891E8986E08C831A8309838FEF21
:100530009FE79E838D83AE01475E5F4F6F89788D05
:10054000CE0101960E94AD02EF81F885E00FF11F08
:1005500010822E96E4E00C946805ABE0B0E0E3EB8B
:10056000F2E00C943E056C017B018A01FC011782CC
:100570001682838181FFCCC1CE0101963C01F60138
:100580009381F70193FD859193FF81917F018823EA
:1005900009F4BAC1853239F493FD859193FF8191B5
:1005A0007F01853229F4B60190E00E94A404E7CFD0
:1005B000912C212C312CFFE1F315D8F08B3279F0FE
:1005C00038F4803279F08332A1F4232D20611DC0EC
:1005D0008D3261F0803369F4232D216016C0832DA4
:1005E0008260382EE32DE4603E2E2AC0F32DF860A1
:1005F0001DC037FC2DC020ED280F2A3040F08E3270
:10060000B9F436FC81C1232D2064322E19C036FE88
:1006100006C08AE0989E200D1124922E11C0EAE0B7
:100620002E9E200D1124222EF32DF0623F2E08C0A5
:100630008C3621F4832D8068382E02C0883641F430
:10064000F70193FD859193FF81917F018111B3CFD4
:10065000982F9F7D9554933028F40C5F1F4F9FE394
:1006600099830DC0833631F0833771F0833509F0FB
:1006700059C021C0F801808189830E5F1F4F8824F3
:100680008394912C530113C02801F2E04F0E511CAA
:10069000F801A080B18036FE03C0692D70E002C071
:1006A0006FEF7FEFC5010E9499044C018201F32D89
:1006B000FF773F2E16C0280122E0420E511CF801A0
:1006C000A080B18036FE03C0692D70E002C06FEFDC
:1006D0007FEFC5010E948E044C01F32DF0683F2E80
:1006E000820133FC1BC0822D90E088169906B0F47D
:1006F000B60180E290E00E94A4042A94F4CFF501B0
:1007000037FC859137FE81915F01B60190E00E9430
:10071000A40421102A9421E0821A910881149104E2
:1007200071F7E8C0843611F0893641F5F80137FEDB
:1007300007C060817181828193810C5F1F4F08C067
:1007400060817181072E000C880B990B0E5F1F4F83
:10075000F32DFF763F2E97FF09C0909580957095F9
:1007600061957F4F8F4F9F4FF0683F2E2AE030E01A
:10077000A3010E94E004882E861845C0853731F415
:10078000232D2F7EB22E2AE030E025C0932D997FB5
:10079000B92E8F36C1F018F4883579F0B5C080379E
:1007A00019F0883721F0B0C0E92FE061BE2EB4FE09
:1007B0000DC0FB2DF460BF2E09C034FE0AC0292FE6
:1007C0002660B22E06C028E030E005C020E130E00F
:1007D00002C020E132E0F801B7FE07C060817181FC
:1007E000828193810C5F1F4F06C06081718180E020
:1007F00090E00E5F1F4FA3010E94E004882E861830
:10080000FB2DFF773F2E36FE0DC0232D2E7FA22E0F
:10081000891458F434FE0BC032FC09C0832D8E7E3F
:10082000A82E05C0B82CA32C03C0B82C01C0B92C2D
:10083000A4FE0FC0FE01E80DF11D8081803321F47C
:100840009A2D997EA92E09C0A2FE06C0B394B39436
:1008500004C08A2D867809F0B394A3FC11C0A0FED1
:1008600006C0B21488F4280C922C9B180EC0B21447
:1008700060F4B60180E290E00E94A404B394F7CF44
:10088000B21418F42B1802C0982C212CA4FE10C00E
:10089000B60180E390E00E94A404A2FE17C0A1FC70
:1008A00003C088E790E002C088E590E0B6010CC084
:1008B0008A2D867859F0A1FE02C08BE201C080E249
:1008C000A7FC8DE2B60190E00E94A404891438F4DC
:1008D000B60180E390E00E94A4049A94F7CF8A9432
:1008E000F301E80DF11D8081B60190E00E94A4049F
:1008F0008110F5CF222009F442CEB60180E290E0CB
:100900000E94A4042A94F6CFF6018681978102C042
:100910008FEF9FEF2B96E2E10C945A05FC010590B6
:10092000615070400110D8F7809590958E0F9F1FF1
:100930000895FC016150704001900110D8F7809536
:1009400090958E0F9F1F08950F931F93CF93DF9362
:10095000FB01238121FD03C08FEF9FEF2CC022FFFD
:1009600016C046815781248135814217530744F4CC
:10097000A081B1819D012F5F3F4F318320838C93F4
:10098000268137812F5F3F4F3783268314C08B0129
:10099000EC01FB010084F185E02D0995892BE1F63E
:1009A000D80116968D919C911797019617969C9356
:1009B0008E931697CE01DF91CF911F910F910895DD
:1009C000FA01AA27283051F1203181F1E8946F9380
:1009D0006E7F6E5F7F4F8F4F9F4FAF4FB1E03ED026
:1009E000B4E03CD0670F781F891F9A1FA11D680FC4
:1009F000791F8A1F911DA11D6A0F711D811D911DF7
:100A0000A11D20D009F468943F912AE0269F11246B
:100A10003019305D3193DEF6CF010895462F4770CF
:100A2000405D4193B3E00FD0C9F7F6CF462F4F702A
:100A3000405D4A3318F0495D31FD4052419302D088
:100A4000A9F7EACFB4E0A69597958795779567952E
:100A5000BA95C9F700976105710508959B01AC012E
:100A60000A2E06945795479537952795BA95C9F755
:100A7000620F731F841F951FA01D08952F923F9230
:100A80004F925F926F927F928F929F92AF92BF929E
:100A9000CF92DF92EF92FF920F931F93CF93DF934A
:100AA000CDB7DEB7CA1BDB0B0FB6F894DEBF0FBEA7
:100AB000CDBF09942A88398848885F846E847D84F4
:100AC0008C849B84AA84B984C884DF80EE80FD80F6
:100AD0000C811B81AA81B981CE0FD11D0FB6F8946C
:0E0AE000DEBF0FBECDBFED010895F894FFCF2D
:100AEE000880C000004465627567677900256C64F4
:020AFE000000F6
:00000001FF
