:100000000C9438000C94AC030C9455000C945500DF
:100010000C9455000C9455000C9455000C94BD02A2
:100020000C9455000C9455000C9455000C945500FC
:100030000C9455000C9455000C94DB030C94550063
:100040000C9455000C9455000C9455000C945500DC
:100050000C9455000C9455000C9455000C945500CC
:100060000C9455000C9455004465627567677900DF
:1000700011241FBECFEFD8E0DEBFCDBF11E0A0E05E
:10008000B1E0E0E8FAE002C005900D92A034B107BB
:10009000D9F721E0A0E4B1E001C01D92AE39B2076A
:1000A000E1F70E949A020C943E050C94000084B182
:1000B0008B7F84B98AB1877F8AB9E8E6F0E08081D6
:1000C00085608083EDE6F0E0808183608083EBE6ED
:1000D000F0E080818360808385B1846085B98BB1D5
:1000E00088608BB9089583B180914201909143015A
:1000F0008130910511F080E090E0089589B1809100
:100100004001909141018130910511F080E090E033
:1001100008950E945A0160E080E00E94450188E64F
:1001200090E00E948F0161E080E00E94450185E03F
:1001300091E00E948201089582E00E949E0180E089
:100140000E94150281E00E9415020E948900089514
:10015000813079F018F08230B9F021C00E945A0144
:1001600061E081E00E94450185E191E00E94820109
:1001700008950E945A0161E081E00E9445018BE1EF
:1001800091E00E94820108950E945A0161E081E09D
:100190000E94450185E291E00E94820108950E943B
:1001A0005A0161E081E00E9445018EE291E00E94E7
:1001B000820108950F931F93CF93DF938B01D42F68
:1001C000880F0E94D604882351F0C1E00CC0F801CA
:1001D000EC0FF11D80810E940405CF5F01C0C0E0DB
:1001E000CD17A8F3C0E00E94FC048C2FDF91CF91C3
:1001F0001F910F9108950F931F93CF93DF9300D01A
:1002000000D01F92CDB7DEB7082F683071F4882375
:1002100011F088E001C080E08093000141E060E0DF
:1002200071E087E20E94DA0026C080910001162F5B
:10023000182B1983802F807F812B84608A838B7F8A
:100240008B8320E1029FC0011124812B84608C8369
:100250008B7F8D8345E0BE016F5F7F4F87E20E94F9
:10026000DA0010FD08C0033030F4E3EFF1E031971D
:10027000F1F700C000000F900F900F900F900F90BB
:10028000DF91CF911F910F910895CF93DF93D82FD6
:10029000C62FE62FF0E0EF5FFE4F80818D2B60E0F0
:1002A00080680E94FB00D0939801C0939901DF9170
:1002B000CF91089560E081E00E94FB0010929901C7
:1002C000109298010895CF93C82F90919801809132
:1002D0009701981710F4CA3041F4609199016F5F4B
:1002E0006093990180E00E944501CA3049F08091F5
:1002F00098018F5F8093980161E08C2F0E94FB0032
:10030000CF910895CF93DF93EC0103C021960E9413
:10031000630188818111FACFDF91CF910895CF9346
:10032000DF93FC0103C00E946301FE01EF012196EF
:1003300084918111F8CFDF91CF9108950F931F938E
:10034000CF93DF9300D000D000D0CDB7DEB7082F19
:1003500080E3898394E39A838B8380E28C8394E2A5
:100360009D838E8380E180939701E1E0F1E08081BD
:10037000805F82838181805F838384B1806284B95E
:1003800085B1806285B90E94D0048BE49DE101971C
:10039000F1F700C0000043E0BE016F5F7F4F87E2CE
:1003A0000E94DA00182F81EE94E00197F1F700C067
:1003B000000043E0BE016F5F7F4F87E20E94DA00DA
:1003C000182B43E0BE016F5F7F4F87E20E94DA0087
:1003D000182B43E0BE016C5F7F4F87E20E94DA007A
:1003E000182B60E088E20E94FB00812B19F085B198
:1003F0008F7D85B960E08CE00E94FB0060E086E0C4
:100400000E94FB0060E081E00E94FB0060E0802F22
:100410000E94FB0026960FB6F894DEBF0FBECDBF3C
:10042000DF91CF911F910F91089568E00E94FB002A
:1004300008950E9457000E94A2020E949C000E9400
:1004400094030E947A03EBE9F1E01182108283E5C4
:1004500082830895CF92DF92EF92FF920E94730001
:10046000892BE1F08091440190914501892B31F471
:1004700081E090E0909345018093440180919A013E
:10048000823020F48F5F80939A0108C0823019F483
:1004900010929A0103C083E080939A01C0904601B4
:1004A000D0904701E0904801F090490188EEC80ED5
:1004B00083E0D81EE11CF11C0E94E202C616D7069A
:1004C000E806F906A8F48091440190914501892B32
:1004D00079F080919A0190E00E94A8000E94E202C7
:1004E00060934601709347018093480190934901BE
:1004F0000E947E00892B21F085B1806285B907C0FA
:100500000E947300892B19F085B1806285B90E9421
:1005100097039B0160939B0170939C0180939D01C5
:1005200060919D01C9010E94ED02FF90EF90DF9064
:10053000CF9008950E94190284B1806284B90E940C
:100540002A02FDCF10924A0110924B0110924C01E9
:1005500010924D01E0EBF0E0808182608083E1EB5E
:10056000F0E080818360808389EF8093B300E0E7CF
:10057000F0E080818260808308951F920F920FB611
:100580000F9211248F939F93AF93BF9380914A0151
:1005900090914B01A0914C01B0914D010196A11D8C
:1005A000B11D80934A0190934B01A0934C01B093ED
:1005B0004D01BF91AF919F918F910F900FBE0F9002
:1005C0001F901895F89460914A0170914B018091A9
:1005D0004C0190914D01789408959C016C34710503
:1005E00009F469C03CF462347105F9F066347105B0
:1005F00069F06FC06C36710509F449C06237710546
:1006000019F16235710509F064C032C085B18160AD
:1006100085B98BB180688BB93093890020938800AD
:1006200030938B0020938A00089585B18E7F85B921
:100630008BB18F778BB930938900209388003093EA
:100640008B0020938A00089585B1816085B98BB1B4
:1006500080688BB93093890020938800C90163E0DA
:1006600070E00E94160570938B0060938A000895D5
:1006700085B1816085B98BB18F778BB93093890053
:100680002093880030938B0020938A00089585B1D1
:10069000816085B98BB180688BB9C90163E070E076
:1006A0000E941605709389006093880030938B0038
:1006B00020938A0008958EEF85B98BB180688BB93D
:1006C000309389002093880030938B0020938A0018
:1006D000089585B18D7F85B985B18B7F85B980E11E
:1006E00097E2909389008093880090938B00809389
:1006F0008A00089584B1876084B98AB180688AB914
:10070000E0E8F0E0808182608083A1E8B0E08C9135
:100710008B618C9387E893E19093870080938600A8
:100720008081806F808308950E9477040895CF931D
:1007300078940E94B504882351F00E94A404863462
:1007400019F0833519F003C0C6E401C0C3E560E0C9
:1007500070E08C2FCF9108951F920F920FB60F92D9
:1007600011248F93EF93FF9383E0809352018DB315
:100770008E7F8DBBEEE6F0E080818D7F808385B536
:100780008C7F85BD81E086BD87E287BD85B58360AE
:1007900085BD10924E0110924F0185B3826085BBDA
:1007A000808182608083FF91EF918F910F900FBEC7
:1007B0000F901F9018951F920F920FB60F92112451
:1007C0008F939F93EF93FF9380915201823039F181
:1007D000833009F44DC0813009F07EC08091500112
:1007E0008830B0F48091510180FF04C08BB18260E9
:1007F0008BB903C08BB18D7F8BB9809151018695E8
:1008000080935101809150018F5F8093500166C0A9
:100810008BB182608BB982E0809352015FC090916E
:100820005401809153019817A9F0E0915301EF5FB3
:10083000EF71E093530181E0809352018BB18D7F82
:100840008BB9F0E0EB5AFE4F8081809351011092FA
:10085000500144C0EEE6F0E080818D7F80831092ED
:1008600052018CB381608CBB8DB381608DBB36C06F
:1008700089E187BD80914E01883090F480914E01CE
:100880008F5F80934E0180914F01869580934F0139
:100890004A9B24C080914F01806880934F011EC005
:1008A000EEE6F0E080818D7F80838CB381608CBB2D
:1008B0008DB381608DBBE0917601EF5FEF71E093C6
:1008C000760180917501F0E080914F01E958FE4F6B
:1008D00080831092520102C010925201FF91EF9159
:1008E0009F918F910F900FBE0F901F9018951092AF
:1008F00075011092760110925301109254018AB141
:100900008B7F8AB98BB184608BB98AB182608AB9D6
:100910008BB182608BB9EEE6F0E080818D7F8083C1
:1009200084B5826084BD85B5836085BDE9E6F0E06D
:100930008081826080838CB381608CBB8DB3816049
:100940008DBB1092520108959091760180917501AE
:100950009817D1F3E0917501EF5FEF71E0937501A6
:10096000F0E0E958FE4F80810895909176018091E2
:100970007501981799F0909176018091750189170A
:1009800030F48091760190917501891B08958091D2
:10099000760190917501891B805E089580E008952D
:1009A0001092B9008CE08093B800089594EA909377
:1009B000BC009091BC009923E4F79091B900987F16
:1009C000983011F0903191F48093BB0084E88093CB
:1009D000BC008091BC008823E4F78091B900887F37
:1009E000883131F0803431F480E0089581E0089559
:1009F00080E0089581E0089584E98093BC008091AF
:100A0000BC0084FDFCCF08958093BB0084E88093F4
:100A1000BC008091BC008823E4F78091B900887FF6
:100A2000883211F081E0089580E0089597FB072E49
:100A300016F4009407D077FD09D00E942A0507FC20
:100A400005D03EF4909581959F4F089570956195DE
:100A50007F4F0895AA1BBB1B51E107C0AA1FBB1FF4
:100A6000A617B70710F0A61BB70B881F991F5A953A
:100A7000A9F780959095BC01CD010895F894FFCF1A
:100A80000880C000005465616D20416E74696D6F0F
:100A90007469766500536C61766500426C756574A7
:100AA0006F6F7468004175746F6E6F6F6D00686F63
:100AB00065206B6F6D206A696A2068696572000045
:00000001FF
