:100000000C9438000C9455000C9455000C94550039
:100010000C9455000C9455000C9455000C9455000C
:100020000C9455000C9455000C9455000C945500FC
:100030000C9455000C9455000C941B020C94550024
:100040000C9455000C9455000C9455000C945500DC
:100050000C9455000C9455000C9455000C945500CC
:100060000C9455000C9455004465627567677900DF
:1000700011241FBECFEFD8E0DEBFCDBF11E0A0E05E
:10008000B1E0E6E2F5E002C005900D92A034B107C0
:10009000D9F721E0A0E4B1E001C01D92A834B20775
:1000A000E1F70E94FD010C9491020C94000084B1D0
:1000B0008B7F84B98AB1877F8AB985B1846085B91D
:1000C0008BB188608BB908951A9903C081E090E0E4
:1000D000089580E090E008954B9903C081E090E09E
:1000E000089580E090E008950E94130160E080E0B0
:1000F0000E94FE0088E690E00E94480161E080E0F6
:100100000E94FE0085E091E00E943B01089582E09C
:100110000E94570180E00E94CE0181E00E94CE0142
:100120000E94740008950F931F93CF93DF938B0168
:10013000D42F880F0E945102882351F0C1E00CC0D7
:10014000F801EC0FF11D80810E947F02CF5F01C09A
:10015000C0E0CD17A8F3C0E00E9477028C2FDF919A
:10016000CF911F910F9108950F931F93CF93DF931A
:1001700000D000D01F92CDB7DEB7082F683071F4E1
:10018000882311F088E001C080E08093000141E005
:1001900060E071E087E20E94930026C08091000138
:1001A000162F182B1983802F807F812B84608A83E0
:1001B0008B7F8B8320E1029FC0011124812B8460FF
:1001C0008C838B7F8D8345E0BE016F5F7F4F87E21D
:1001D0000E94930010FD08C0033030F4E3EFF1E01B
:1001E0003197F1F700C000000F900F900F900F9023
:1001F0000F90DF91CF911F910F910895CF93DF93CF
:10020000D82FC62FE62FF0E0EF5FFE4F80818D2BB9
:1002100060E080680E94B400D0934501C09346011D
:10022000DF91CF91089560E081E00E94B4001092C8
:100230004601109245010895CF93C82F9091450132
:1002400080914401981710F4CA3041F4609146013E
:100250006F5F6093460180E00E94FE00CA3049F063
:10026000809145018F5F8093450161E08C2F0E9452
:10027000B400CF910895CF93DF93EC0103C0219692
:100280000E941C0188818111FACFDF91CF910895DE
:10029000CF93DF93FC0103C00E941C01FE01EF011C
:1002A000219684918111F8CFDF91CF9108950F931A
:1002B0001F93CF93DF9300D000D000D0CDB7DEB72F
:1002C000082F80E3898394E39A838B8380E28C8375
:1002D00094E29D838E8380E180934401E1E0F1E02C
:1002E0008081805F82838181805F838384B180622B
:1002F00084B985B1806285B90E944B028BE49DE18F
:100300000197F1F700C0000043E0BE016F5F7F4F2F
:1003100087E20E949300182F81EE94E00197F1F795
:1003200000C0000043E0BE016F5F7F4F87E20E9484
:100330009300182B43E0BE016F5F7F4F87E20E945E
:100340009300182B43E0BE016C5F7F4F87E20E9451
:100350009300182B60E088E20E94B400812B19F012
:1003600085B18F7D85B960E08CE00E94B40060E0CB
:1003700086E00E94B40060E081E00E94B40060E08A
:10038000802F0E94B40026960FB6F894DEBF0FBEF1
:10039000CDBFDF91CF911F910F91089568E00E942A
:1003A000B40008950E9457000E9405020E94870031
:1003B00008950E946400892B51F08091470182309A
:1003C00020F48F5F8093470102C0109247010E9482
:1003D00040020E946C00892B21F085B1806285B9B2
:1003E00008950E946400892B21F085B1806285B94F
:1003F000089585B18F7D85B908950E94D20184B199
:10040000806284B90E94D901FDCF10924001109200
:100410004101109242011092430184B5826084BD73
:1004200085B5836085BD89EF87BDEEE6F0E080810C
:100430008260808308951F920F920FB60F9211244D
:100440008F939F93AF93BF9380914001909141010F
:10045000A0914201B09143010196A11DB11D80936D
:10046000400190934101A0934201B0934301BF9199
:10047000AF919F918F910F900FBE0F901F90189585
:10048000F8946091400170914101809142019091F6
:100490004301789408951092B9008CE08093B800DD
:1004A000089594EA9093BC009091BC009923E4F7DE
:1004B0009091B900987F983011F0903191F4809329
:1004C000BB0084E88093BC008091BC008823E4F7E3
:1004D0008091B900887F883131F0803431F480E038
:1004E000089581E0089580E0089581E0089584E909
:1004F0008093BC008091BC0084FDFCCF0895809364
:10050000BB0084E88093BC008091BC008823E4F7A2
:100510008091B900887F883211F081E0089580E0F1
:060520000895F894FFCFDE
:100526000880C000005465616D20416E74696D6F6E
:100536007469766500536C61766500426C75657406
:100546006F6F7468004175746F6E6F6F6D00686FC2
:1005560065206B6F6D206A696A20686965720000A4
:00000001FF
