:100000000C9434000C9451000C9451000C94510049
:100010000C9451000C9451000C9451000C9451001C
:100020000C9451000C9451000C9451000C9451000C
:100030000C9451000C9451000C94E9010C94510063
:100040000C9451000C9451000C9451000C945100EC
:100050000C9451000C9451000C9451000C945100DC
:100060000C9451000C94510011241FBECFEFD8E026
:10007000DEBFCDBF11E0A0E0B1E0E2ECF4E002C0F1
:1000800005900D92A631B107D9F721E0A6E1B1E0C4
:1000900001C01D92AD31B207E1F70E949E010C94A0
:1000A0005F020C9400000F931F93CF93DF938B019B
:1000B000D42F880F0E941F02882351F0C1E00CC08A
:1000C000F801EC0FF11D80810E944D02CF5F01C04D
:1000D000C0E0CD17A8F3C0E00E9445028C2FDF914D
:1000E000CF911F910F9108950F931F93CF93DF939B
:1000F00000D000D01F92CDB7DEB7082F683071F462
:10010000882311F088E001C080E08093000141E085
:1001100060E071E087E20E94530026C080910001F8
:10012000162F182B1983802F807F812B84608A8360
:100130008B7F8B8320E1029FC0011124812B84607F
:100140008C838B7F8D8345E0BE016F5F7F4F87E29D
:100150000E94530010FD08C0033030F4E3EFF1E0DB
:100160003197F1F700C000000F900F900F900F90A3
:100170000F90DF91CF911F910F910895CF93DF934F
:10018000D82FC62FE62FF0E0EF5FFE4F80818D2B3A
:1001900060E080680E947400D0931B01C0931C0132
:1001A000DF91CF91089560E081E00E947400109289
:1001B0001C0110921B010895CF93C82F90911B0131
:1001C00080911A01981710F4CA3041F460911C0113
:1001D0006F5F60931C0180E00E94BE00CA3049F04E
:1001E00080911B018F5F80931B0161E08C2F0E9427
:1001F0007400CF910895CF93DF93EC0103C0219653
:100200000E94DC0088818111FACFDF91CF9108959F
:100210000F931F93CF93DF9300D000D000D0CDB7C2
:10022000DEB7082F80E3898394E39A838B8380E28F
:100230008C8394E29D838E8380E180931A01E1E0B8
:10024000F1E08081805F82838181805F838384B1DC
:10025000806284B985B1806285B90E9419028BE4FD
:100260009DE10197F1F700C0000043E0BE016F5F20
:100270007F4F87E20E945300182F81EE94E0019790
:10028000F1F700C0000043E0BE016F5F7F4F87E2DF
:100290000E945300182B43E0BE016F5F7F4F87E23F
:1002A0000E945300182B43E0BE016C5F7F4F87E232
:1002B0000E945300182B60E088E20E947400812B9A
:1002C00019F085B18F7D85B960E08CE00E947400E3
:1002D00060E086E00E94740060E081E00E947400AB
:1002E00060E0802F0E94740026960FB6F894DEBF5F
:1002F0000FBECDBFDF91CF911F910F91089568E0A0
:100300000E947400089584B18B7F84B98AB1877F7D
:100310008AB985B1846085B98BB188608BB908953D
:100320004B9906C085B1806285B981E090E008955F
:1003300085B18F7D85B980E090E008950E948301AA
:100340000E94D30182E00E94080181E00E947F01A7
:1003500084B1806284B9C12CD12C76010E949001B5
:100360000E94D30060E085E00E94BE0085E091E03D
:100370000E94FB0061E081E00E94BE0081E191E00B
:100380000E94FB00C6010E94FB002FE38DE093E07A
:10039000215080409040E1F700C000000E940E0212
:1003A0006B017C01DBCF10921601109217011092A5
:1003B00018011092190184B5826084BD85B58360EF
:1003C00085BD89EF87BDEEE6F0E0808182608083A5
:1003D00008951F920F920FB60F9211248F939F933F
:1003E000AF93BF938091160190911701A0911801CE
:1003F000B09119010196A11DB11D80931601909332
:100400001701A0931801B0931901BF91AF919F916B
:100410008F910F900FBE0F901F901895F8946091D8
:10042000160170911701809118019091190178942B
:1004300008951092B9008CE08093B800089594EA72
:100440009093BC009091BC009923E4F79091B9007F
:10045000987F983011F0903191F48093BB0084E83C
:100460008093BC008091BC008823E4F78091B900A0
:10047000887F883131F0803431F480E0089581E064
:10048000089580E0089581E0089584E98093BC0098
:100490008091BC0084FDFCCF08958093BB0084E86C
:1004A0008093BC008091BC008823E4F78091B90060
:1004B000887F883211F081E0089580E00895F894F3
:0204C000FFCF6C
:1004C2000880C0000048656C6C6F20576F726C64C6
:0604D20000486F69000004
:00000001FF
