S00E00004465627567792E73726563B6
S11300000C9438000C94B2020C9455000C945500D6
S11300100C9455000C9455000C9455000C948202D9
S11300200C9455000C9455000C9455000C945500F8
S11300300C9455000C9455000C94E1020C9455005A
S11300400C9455000C9455000C9455000C945500D8
S11300500C9455000C9455000C9455000C945500C8
S11300600C9455000C9455004465627567677900DB
S113007011241FBECFEFD8E0DEBFCDBF11E0A0E05A
S1130080B1E0EAE8F7E002C005900D92A034B107B0
S1130090D9F721E0A0E4B1E001C01D92A539B2076F
S11300A0E1F70E945F020C94C3030C94000084B136
S11300B08B7F84B98AB1877F8AB985B1846085B919
S11300C08BB188608BB908951A9903C081E090E0E0
S11300D0089580E090E008954B9903C081E090E09A
S11300E0089580E090E008950E94450160E080E07A
S11300F00E94300188E690E00E947A0161E080E08D
S11301000E94300185E091E00E946D01089582E033
S11301100E94890180E00E94000281E00E940002A6
S11301200E9474000895813079F018F08230B9F09B
S113013021C00E94450161E081E00E94300185E117
S113014091E00E946D0108950E94450161E081E003
S11301500E9430018BE191E00E946D0108950E949C
S1130160450161E081E00E94300185E291E00E9456
S11301706D0108950E94450161E081E00E94300113
S11301808EE291E00E946D0108950F931F93CF9327
S1130190DF938B01D42F880F0E948303882351F0AF
S11301A0C1E00CC0F801EC0FF11D80810E94B10385
S11301B0CF5F01C0C0E0CD17A8F3C0E00E94A9033F
S11301C08C2FDF91CF911F910F9108950F931F935F
S11301D0CF93DF9300D000D01F92CDB7DEB7082FA6
S11301E0683071F4882311F088E001C080E08093C6
S11301F0000141E060E071E087E20E94C50026C092
S113020080910001162F182B1983802F807F812B5A
S113021084608A838B7F8B8320E1029FC001112439
S1130220812B84608C838B7F8D8345E0BE016F5F5F
S11302307F4F87E20E94C50010FD08C0033030F4F0
S1130240E3EFF1E03197F1F700C000000F900F9059
S11302500F900F900F90DF91CF911F910F91089500
S1130260CF93DF93D82FC62FE62FF0E0EF5FFE4F3A
S113027080818D2B60E080680E94E600D09392011B
S1130280C0939301DF91CF91089560E081E00E94D3
S1130290E60010929301109292010895CF93C82F13
S11302A09091920180919101981710F4CA3041F411
S11302B0609193016F5F6093930180E00E9430012D
S11302C0CA3049F0809192018F5F8093920161E07E
S11302D08C2F0E94E600CF910895CF93DF93EC0119
S11302E003C021960E944E0188818111FACFDF91CB
S11302F0CF910895CF93DF93FC0103C00E944E0178
S1130300FE01EF01219684918111F8CFDF91CF9105
S113031008950F931F93CF93DF9300D000D000D0A4
S1130320CDB7DEB7082F80E3898394E39A838B8368
S113033080E28C8394E29D838E8380E1809391019B
S1130340E1E0F1E08081805F82838181805F83834B
S113035084B1806284B985B1806285B90E947D03CD
S11303608BE49DE10197F1F700C0000043E0BE017A
S11303706F5F7F4F87E20E94C500182F81EE94E0E3
S11303800197F1F700C0000043E0BE016F5F7F4FAB
S113039087E20E94C500182B43E0BE016F5F7F4FC8
S11303A087E20E94C500182B43E0BE016C5F7F4FBB
S11303B087E20E94C500182B60E088E20E94E600F4
S11303C0812B19F085B18F7D85B960E08CE00E94A6
S11303D0E60060E086E00E94E60060E081E00E94C2
S11303E0E60060E0802F0E94E60026960FB6F8949F
S11303F0DEBF0FBECDBFDF91CF911F910F91089546
S113040068E00E94E60008950E9457000E94670277
S11304100E9487000895CF92DF92EF92FF920E948C
S11304206400892B81F080919401823020F48F5FE5
S11304308093940108C0823019F41092940103C08F
S113044083E080939401C0904001D0904101E090FA
S11304504201F090430188EEC80E83E0D81EE11CEF
S1130460F11C0E94A702C616D706E806F90678F41E
S11304708091940190E00E9493000E94A7026093EF
S113048040017093410180934201909343010E9483
S11304906C00892B21F085B1806285B90BC00E9464
S11304A06400892B21F085B1806285B903C085B1D0
S11304B08F7D85B9FF90EF90DF90CF9008950E94D3
S11304C0040284B1806284B90E940B02FDCF1092B1
S11304D04401109245011092460110924701E0EB4D
S11304E0F0E0808182608083E1EBF0E080818360D2
S11304F0808389EF8093B300E0E7F0E0808182603D
S1130500808308951F920F920FB60F9211248F9338
S11305109F93AF93BF938091440190914501A09123
S11305204601B09147010196A11DB11D809344017C
S113053090934501A0934601B0934701BF91AF91B9
S11305409F918F910F900FBE0F901F901895F89464
S11305506091440170914501809146019091470159
S1130560789408951F920F920FB60F9211248F93CF
S1130570EF93FF9383E080934C018DB38E7F8DBB0B
S1130580EEE6F0E080818D7F808385B58C7F85BD2C
S113059081E086BD87E287BD85B5836085BD109205
S11305A048011092490185B3826085BB80818260D5
S11305B08083FF91EF918F910F900FBE0F901F904A
S11305C018951F920F920FB60F9211248F939F9339
S11305D0EF93FF9380914C01823039F1833009F419
S11305E04DC0813009F07EC080914A018830B0F45A
S11305F080914B0180FF04C08BB182608BB903C032
S11306008BB18D7F8BB980914B01869580934B0183
S113061080914A018F5F80934A0166C08BB18260EA
S11306208BB982E080934C015FC090914E01809120
S11306304D019817A9F0E0914D01EF5FEF71E09340
S11306404D0181E080934C018BB18D7F8BB9F0E03B
S1130650E15BFE4F808180934B0110924A0144C0BC
S1130660EEE6F0E080818D7F808310924C018CB3A4
S113067081608CBB8DB381608DBB36C089E187BD41
S113068080914801883090F4809148018F5F809375
S11306904801809149018695809349014A9B24C071
S11306A0809149018068809349011EC0EEE6F0E024
S11306B080818D7F80838CB381608CBB8DB381609E
S11306C08DBBE0917001EF5FEF71E0937001809159
S11306D06F01F0E080914901EF58FE4F8083109242
S11306E04C0102C010924C01FF91EF919F918F91A8
S11306F00F900FBE0F901F9018951092B9008CE0C8
S11307008093B800089594EA9093BC009091BC0043
S11307109923E4F79091B900987F983011F09031C3
S113072091F48093BB0084E88093BC008091BC006A
S11307308823E4F78091B900887F883131F08034D0
S113074031F480E0089581E0089580E0089581E027
S1130750089584E98093BC008091BC0084FDFCCFA3
S113076008958093BB0084E88093BC008091BC0012
S11307708823E4F78091B900887F883211F081E002
S10D0780089580E00895F894FFCF77
S113078A0880C000005465616D20416E74696D6F04
S113079A7469766500536C61766500426C7565749C
S11307AA6F6F7468004175746F6E6F6F6D00686F58
S11307BA65206B6F6D206A696A206869657200003A
S9030000FC
