S01400004D6F746F7246756E637469652E7372656331
S11300000C9434000C943E000C943E000C943E007E
S11300100C943E000C943E000C943E000C943E0064
S11300200C943E000C943E000C943E000C943E0054
S11300300C943E000C943E000C943E000C943E0044
S11300400C943E000C943E000C943E000C943E0034
S11300500C943E000C943E000C943E000C943E0024
S11300600C943E000C943E0011241FBECFEFD8E048
S1130070DEBFCDBF0E9490000C9499000C94000048
S113008084B1876084B98AB180688AB9E0E8F0E015
S1130090808182608083A1E8B0E08C918B618C9335
S11300A087E893E190938700809386008081806F36
S11300B0808308956634710521F06235710581F0FD
S11300C01EC025B1216025B92BB120682BB99093AE
S11300D089008093880090938B0080938A00089510
S11300E025B1216025B92BB12F772BB990938900C5
S11300F08093880090938B0080938A00089585B143
S11301008D7F85B985B18B7F85B980E197E2909326
S113011089008093880090938B0080938A000895CF
S11301200E94400062E570E084EC99E00E945A006D
S1090130F9CFF894FFCFA3
S9030000FC
